{
  "_format": "hh-sol-artifact-1",
  "contractName": "TestBasics",
  "sourceName": "contracts/TestBasics.sol",
  "abi": [
    {
      "inputs": [
        {
          "internalType": "uint256",
          "name": "number",
          "type": "uint256"
        }
      ],
      "name": "ForbiddenNumber",
      "type": "error"
    },
    {
      "anonymous": false,
      "inputs": [
        {
          "indexed": false,
          "internalType": "uint256",
          "name": "value",
          "type": "uint256"
        }
      ],
      "name": "ValueSet",
      "type": "event"
    },
    {
      "inputs": [],
      "name": "getValue",
      "outputs": [
        {
          "internalType": "uint256",
          "name": "",
          "type": "uint256"
        }
      ],
      "stateMutability": "view",
      "type": "function"
    },
    {
      "inputs": [
        {
          "internalType": "uint256",
          "name": "_value",
          "type": "uint256"
        }
      ],
      "name": "setValue",
      "outputs": [],
      "stateMutability": "nonpayable",
      "type": "function"
    },
    {
      "inputs": [
        {
          "internalType": "uint256",
          "name": "_number",
          "type": "uint256"
        }
      ],
      "name": "testNumberBasic",
      "outputs": [],
      "stateMutability": "pure",
      "type": "function"
    },
    {
      "inputs": [
        {
          "internalType": "uint256",
          "name": "_number",
          "type": "uint256"
        }
      ],
      "name": "testNumberCustom",
      "outputs": [],
      "stateMutability": "pure",
      "type": "function"
    }
  ],
  "bytecode": "0x608060405234801561001057600080fd5b5061031a806100206000396000f3fe608060405234801561001057600080fd5b506004361061004c5760003560e01c8063209652551461005157806345867aa51461006f578063552410771461008b578063858edea2146100a7575b600080fd5b6100596100c3565b60405161006691906101ee565b60405180910390f35b6100896004803603810190610084919061023a565b6100cc565b005b6100a560048036038101906100a0919061023a565b61012a565b005b6100c160048036038101906100bc919061023a565b610174565b005b60008054905090565b61029a8114806100dd57506101a481145b806100e85750604581145b610127576040517f08c379a000000000000000000000000000000000000000000000000000000000815260040161011e906102c4565b60405180910390fd5b50565b61013381610174565b806000819055507f012c78e2b84325878b1bd9d250d772cfe5bda7722d795f45036fa5e1e6e303fc8160405161016991906101ee565b60405180910390a150565b61029a81148061018557506101a481145b806101905750604581145b156101d257806040517fc96394cc0000000000000000000000000000000000000000000000000000000081526004016101c991906101ee565b60405180910390fd5b50565b6000819050919050565b6101e8816101d5565b82525050565b600060208201905061020360008301846101df565b92915050565b600080fd5b610217816101d5565b811461022257600080fd5b50565b6000813590506102348161020e565b92915050565b6000602082840312156102505761024f610209565b5b600061025e84828501610225565b91505092915050565b600082825260208201905092915050565b7f54686973206973206120666f7262696464656e206e756d626572000000000000600082015250565b60006102ae601a83610267565b91506102b982610278565b602082019050919050565b600060208201905081810360008301526102dd816102a1565b905091905056fea2646970667358221220630fcb6a52170fa8a76a99176d8596c54d356c22956f445cb830ac3d90d93da264736f6c63430008120033",
  "linkReferences": {},
  "deployedLinkReferences": {}
}